{
  "contractName": "SimpleStorage",
  "abi": [
    {
      "anonymous": false,
      "inputs": [
        {
          "indexed": false,
          "internalType": "string",
          "name": "eventOutput",
          "type": "string"
        }
      ],
      "name": "myEventTest",
      "type": "event"
    },
    {
      "constant": true,
      "inputs": [],
      "name": "storedData",
      "outputs": [
        {
          "internalType": "string",
          "name": "",
          "type": "string"
        }
      ],
      "payable": false,
      "stateMutability": "view",
      "type": "function"
    },
    {
      "constant": false,
      "inputs": [
        {
          "internalType": "string",
          "name": "myText",
          "type": "string"
        }
      ],
      "name": "set",
      "outputs": [],
      "payable": false,
      "stateMutability": "nonpayable",
      "type": "function"
    },
    {
      "constant": true,
      "inputs": [],
      "name": "get",
      "outputs": [
        {
          "internalType": "string",
          "name": "",
          "type": "string"
        }
      ],
      "payable": false,
      "stateMutability": "view",
      "type": "function"
    }
  ],
  "bytecode": "0x608060405234801561001057600080fd5b506104d7806100206000396000f3fe608060405234801561001057600080fd5b50600436106100415760003560e01c80632a1afcd9146100465780634ed3885e146100c95780636d4ce63c14610184575b600080fd5b61004e610207565b6040518080602001828103825283818151815260200191508051906020019080838360005b8381101561008e578082015181840152602081019050610073565b50505050905090810190601f1680156100bb5780820380516001836020036101000a031916815260200191505b509250505060405180910390f35b610182600480360360208110156100df57600080fd5b81019080803590602001906401000000008111156100fc57600080fd5b82018360208201111561010e57600080fd5b8035906020019184600183028401116401000000008311171561013057600080fd5b91908080601f016020809104026020016040519081016040528093929190818152602001838380828437600081840152601f19601f8201169050808301925050505050505091929192905050506102a5565b005b61018c61035b565b6040518080602001828103825283818151815260200191508051906020019080838360005b838110156101cc5780820151818401526020810190506101b1565b50505050905090810190601f1680156101f95780820380516001836020036101000a031916815260200191505b509250505060405180910390f35b60008054600181600116156101000203166002900480601f01602080910402602001604051908101604052809291908181526020018280546001816001161561010002031660029004801561029d5780601f106102725761010080835404028352916020019161029d565b820191906000526020600020905b81548152906001019060200180831161028057829003601f168201915b505050505081565b80600090805190602001906102bb9291906103fd565b507f319b9e64f64b033d6b8102f9688735cefac53d266b6e85d21cf85e9856fc7b99816040518080602001828103825283818151815260200191508051906020019080838360005b8381101561031e578082015181840152602081019050610303565b50505050905090810190601f16801561034b5780820380516001836020036101000a031916815260200191505b509250505060405180910390a150565b606060008054600181600116156101000203166002900480601f0160208091040260200160405190810160405280929190818152602001828054600181600116156101000203166002900480156103f35780601f106103c8576101008083540402835291602001916103f3565b820191906000526020600020905b8154815290600101906020018083116103d657829003601f168201915b5050505050905090565b828054600181600116156101000203166002900490600052602060002090601f016020900481019282601f1061043e57805160ff191683800117855561046c565b8280016001018555821561046c579182015b8281111561046b578251825591602001919060010190610450565b5b509050610479919061047d565b5090565b61049f91905b8082111561049b576000816000905550600101610483565b5090565b9056fea265627a7a7231582031a601f26b3a9e5b3717e58a52adee16d5e81ba1eb0d407f012b9734170d31f464736f6c63430005100032",
  "source": "pragma solidity ^0.5.0;\n\ncontract SimpleStorage {\n    string public storedData;\n\n    event myEventTest(string eventOutput);\n\n    function set(string memory myText) public {\n        storedData = myText;\n        emit myEventTest(myText);\n    }\n\n    function get() public view returns (string memory) {\n        return storedData;\n    }\n}\n",
  "sourcePath": "/Users/chriszertamayo/Desktop/react/dapps/simplestore/src/contracts/SimpleStorage.sol",
  "compiler": {
    "name": "solc",
    "version": "0.5.16+commit.9c3226ce.Emscripten.clang"
  },
  "schemaVersion": "3.4.11",
  "updatedAt": "2023-02-13T13:50:18.252Z",
  "networkType": "quorum",
  "devdoc": {
    "methods": {}
  },
  "userdoc": {
    "methods": {}
  }
}